{
  "_format": "hh-sol-artifact-1",
  "contractName": "BlockerChain",
  "sourceName": "contracts/BlockerChain.sol",
  "abi": [
    {
      "inputs": [],
      "stateMutability": "nonpayable",
      "type": "constructor"
    },
    {
      "anonymous": false,
      "inputs": [
        {
          "indexed": false,
          "internalType": "uint256",
          "name": "newPrice",
          "type": "uint256"
        }
      ],
      "name": "CarbonCreditPriceUpdated",
      "type": "event"
    },
    {
      "anonymous": false,
      "inputs": [
        {
          "indexed": true,
          "internalType": "address",
          "name": "buyer",
          "type": "address"
        },
        {
          "indexed": true,
          "internalType": "address",
          "name": "provider",
          "type": "address"
        },
        {
          "indexed": false,
          "internalType": "uint256",
          "name": "amount",
          "type": "uint256"
        },
        {
          "indexed": false,
          "internalType": "uint256",
          "name": "price",
          "type": "uint256"
        }
      ],
      "name": "CarbonCreditsBought",
      "type": "event"
    },
    {
      "anonymous": false,
      "inputs": [
        {
          "indexed": true,
          "internalType": "address",
          "name": "seller",
          "type": "address"
        },
        {
          "indexed": false,
          "internalType": "uint256",
          "name": "amount",
          "type": "uint256"
        },
        {
          "indexed": false,
          "internalType": "uint256",
          "name": "price",
          "type": "uint256"
        }
      ],
      "name": "CarbonCreditsSold",
      "type": "event"
    },
    {
      "anonymous": false,
      "inputs": [
        {
          "indexed": true,
          "internalType": "address",
          "name": "provider",
          "type": "address"
        },
        {
          "indexed": false,
          "internalType": "uint256",
          "name": "amount",
          "type": "uint256"
        }
      ],
      "name": "CreditsAdded",
      "type": "event"
    },
    {
      "anonymous": false,
      "inputs": [
        {
          "indexed": true,
          "internalType": "address",
          "name": "user",
          "type": "address"
        },
        {
          "indexed": false,
          "internalType": "string",
          "name": "name",
          "type": "string"
        },
        {
          "indexed": false,
          "internalType": "bool",
          "name": "isProvider",
          "type": "bool"
        }
      ],
      "name": "ProfileCreated",
      "type": "event"
    },
    {
      "anonymous": false,
      "inputs": [
        {
          "indexed": true,
          "internalType": "address",
          "name": "user",
          "type": "address"
        },
        {
          "indexed": false,
          "internalType": "string",
          "name": "username",
          "type": "string"
        }
      ],
      "name": "UsernameSet",
      "type": "event"
    },
    {
      "anonymous": false,
      "inputs": [
        {
          "indexed": true,
          "internalType": "address",
          "name": "user",
          "type": "address"
        },
        {
          "indexed": false,
          "internalType": "uint256",
          "name": "value",
          "type": "uint256"
        }
      ],
      "name": "ValueStored",
      "type": "event"
    },
    {
      "inputs": [
        {
          "internalType": "uint256",
          "name": "amount",
          "type": "uint256"
        }
      ],
      "name": "addCredits",
      "outputs": [],
      "stateMutability": "nonpayable",
      "type": "function"
    },
    {
      "inputs": [
        {
          "internalType": "uint256",
          "name": "amount",
          "type": "uint256"
        }
      ],
      "name": "buyCarbonCredits",
      "outputs": [],
      "stateMutability": "payable",
      "type": "function"
    },
    {
      "inputs": [
        {
          "internalType": "string",
          "name": "name",
          "type": "string"
        },
        {
          "internalType": "string",
          "name": "description",
          "type": "string"
        },
        {
          "internalType": "bool",
          "name": "isProvider",
          "type": "bool"
        }
      ],
      "name": "createProfile",
      "outputs": [],
      "stateMutability": "nonpayable",
      "type": "function"
    },
    {
      "inputs": [],
      "name": "getCarbonCreditPrice",
      "outputs": [
        {
          "internalType": "uint256",
          "name": "",
          "type": "uint256"
        }
      ],
      "stateMutability": "view",
      "type": "function"
    },
    {
      "inputs": [],
      "name": "getCarbonCredits",
      "outputs": [
        {
          "internalType": "uint256",
          "name": "",
          "type": "uint256"
        }
      ],
      "stateMutability": "view",
      "type": "function"
    },
    {
      "inputs": [
        {
          "internalType": "address",
          "name": "user",
          "type": "address"
        }
      ],
      "name": "getProfile",
      "outputs": [
        {
          "internalType": "string",
          "name": "name",
          "type": "string"
        },
        {
          "internalType": "string",
          "name": "description",
          "type": "string"
        },
        {
          "internalType": "uint256",
          "name": "creditsAvailable",
          "type": "uint256"
        },
        {
          "internalType": "uint256",
          "name": "creditsSold",
          "type": "uint256"
        },
        {
          "internalType": "bool",
          "name": "isProvider",
          "type": "bool"
        },
        {
          "internalType": "uint256",
          "name": "reputation",
          "type": "uint256"
        },
        {
          "internalType": "bool",
          "name": "exists",
          "type": "bool"
        }
      ],
      "stateMutability": "view",
      "type": "function"
    },
    {
      "inputs": [],
      "name": "getProviders",
      "outputs": [
        {
          "internalType": "address[]",
          "name": "",
          "type": "address[]"
        }
      ],
      "stateMutability": "view",
      "type": "function"
    },
    {
      "inputs": [],
      "name": "getTotalCarbonCredits",
      "outputs": [
        {
          "internalType": "uint256",
          "name": "",
          "type": "uint256"
        }
      ],
      "stateMutability": "view",
      "type": "function"
    },
    {
      "inputs": [],
      "name": "getTotalVolume",
      "outputs": [
        {
          "internalType": "uint256",
          "name": "",
          "type": "uint256"
        }
      ],
      "stateMutability": "view",
      "type": "function"
    },
    {
      "inputs": [
        {
          "internalType": "address",
          "name": "user",
          "type": "address"
        }
      ],
      "name": "getUsername",
      "outputs": [
        {
          "internalType": "string",
          "name": "",
          "type": "string"
        }
      ],
      "stateMutability": "view",
      "type": "function"
    },
    {
      "inputs": [],
      "name": "retrieve",
      "outputs": [
        {
          "internalType": "uint256",
          "name": "",
          "type": "uint256"
        }
      ],
      "stateMutability": "view",
      "type": "function"
    },
    {
      "inputs": [
        {
          "internalType": "uint256",
          "name": "amount",
          "type": "uint256"
        }
      ],
      "name": "sellCarbonCredits",
      "outputs": [],
      "stateMutability": "nonpayable",
      "type": "function"
    },
    {
      "inputs": [
        {
          "internalType": "uint256",
          "name": "newPrice",
          "type": "uint256"
        }
      ],
      "name": "setCarbonCreditPrice",
      "outputs": [],
      "stateMutability": "nonpayable",
      "type": "function"
    },
    {
      "inputs": [
        {
          "internalType": "string",
          "name": "name",
          "type": "string"
        }
      ],
      "name": "setUsername",
      "outputs": [],
      "stateMutability": "nonpayable",
      "type": "function"
    },
    {
      "inputs": [
        {
          "internalType": "uint256",
          "name": "value",
          "type": "uint256"
        }
      ],
      "name": "store",
      "outputs": [],
      "stateMutability": "nonpayable",
      "type": "function"
    },
    {
      "stateMutability": "payable",
      "type": "receive"
    }
  ],
  "bytecode": "0x6080604052348015600f57600080fd5b50662386f26fc1000060058190555061226e8061002d6000396000f3fe6080604052600436106100ec5760003560e01c8063811b6baf1161008a578063ce43c03211610059578063ce43c032146102d0578063ed59313a1461030d578063edc922a914610336578063f27b7e2a14610361576100f3565b8063811b6baf146102375780638b29ad4014610262578063aecdd5231461028b578063c5666a05146102b4576100f3565b80632aea58b2116100c65780632aea58b2146101915780632e64cec1146101ba5780635a8c7633146101e55780636057361d1461020e576100f3565b80630b9d98e9146100f85780630f53a4701461012357806316dad69b14610166576100f3565b366100f357005b600080fd5b34801561010457600080fd5b5061010d61038c565b60405161011a9190611495565b60405180910390f35b34801561012f57600080fd5b5061014a60048036038101906101459190611522565b610396565b60405161015d97969594939291906115fa565b60405180910390f35b34801561017257600080fd5b5061017b6105a3565b6040516101889190611495565b60405180910390f35b34801561019d57600080fd5b506101b860048036038101906101b391906116a3565b6105ad565b005b3480156101c657600080fd5b506101cf610742565b6040516101dc9190611495565b60405180910390f35b3480156101f157600080fd5b5061020c600480360381019061020791906116a3565b610788565b005b34801561021a57600080fd5b50610235600480360381019061023091906116a3565b61080c565b005b34801561024357600080fd5b5061024c6108a0565b6040516102599190611495565b60405180910390f35b34801561026e57600080fd5b50610289600480360381019061028491906116a3565b6108aa565b005b34801561029757600080fd5b506102b260048036038101906102ad9190611831565b610b1c565b005b6102ce60048036038101906102c991906116a3565b610d72565b005b3480156102dc57600080fd5b506102f760048036038101906102f29190611522565b611238565b60405161030491906118bc565b60405180910390f35b34801561031957600080fd5b50610334600480360381019061032f91906118de565b611309565b005b34801561034257600080fd5b5061034b6113a7565b60405161035891906119e5565b60405180910390f35b34801561036d57600080fd5b50610376611435565b6040516103839190611495565b60405180910390f35b6000600754905090565b606080600080600080600080600360008a73ffffffffffffffffffffffffffffffffffffffff1673ffffffffffffffffffffffffffffffffffffffff1681526020019081526020016000206040518060e00160405290816000820180546103fc90611a36565b80601f016020809104026020016040519081016040528092919081815260200182805461042890611a36565b80156104755780601f1061044a57610100808354040283529160200191610475565b820191906000526020600020905b81548152906001019060200180831161045857829003601f168201915b5050505050815260200160018201805461048e90611a36565b80601f01602080910402602001604051908101604052809291908181526020018280546104ba90611a36565b80156105075780601f106104dc57610100808354040283529160200191610507565b820191906000526020600020905b8154815290600101906020018083116104ea57829003601f168201915b5050505050815260200160028201548152602001600382015481526020016004820160009054906101000a900460ff16151515158152602001600582015481526020016006820160009054906101000a900460ff1615151515815250509050806000015181602001518260400151836060015184608001518560a001518660c00151975097509750975097509750975050919395979092949650565b6000600554905090565b600360003373ffffffffffffffffffffffffffffffffffffffff1673ffffffffffffffffffffffffffffffffffffffff16815260200190815260200160002060040160009054906101000a900460ff1661063c576040517f08c379a000000000000000000000000000000000000000000000000000000000815260040161063390611ab3565b60405180910390fd5b6000811161067f576040517f08c379a000000000000000000000000000000000000000000000000000000000815260040161067690611b1f565b60405180910390fd5b80600360003373ffffffffffffffffffffffffffffffffffffffff1673ffffffffffffffffffffffffffffffffffffffff16815260200190815260200160002060020160008282546106d19190611b6e565b9250508190555080600660008282546106ea9190611b6e565b925050819055503373ffffffffffffffffffffffffffffffffffffffff167fed46984c46e11f42ec323727ba7d99dc16be2d248a8aaa8982d492688497f09d826040516107379190611495565b60405180910390a250565b60008060003373ffffffffffffffffffffffffffffffffffffffff1673ffffffffffffffffffffffffffffffffffffffff16815260200190815260200160002054905090565b600081116107cb576040517f08c379a00000000000000000000000000000000000000000000000000000000081526004016107c290611bee565b60405180910390fd5b806005819055507fe9fe7eb265f0ba3d542f9387ac2c13a92e6a74fedaeafe9423862b406588911f816040516108019190611495565b60405180910390a150565b806000803373ffffffffffffffffffffffffffffffffffffffff1673ffffffffffffffffffffffffffffffffffffffff168152602001908152602001600020819055503373ffffffffffffffffffffffffffffffffffffffff167f0e206f5529831e9b05b13e53145833f40b1e2fc5fc831b7c6a24301d4ea43c39826040516108959190611495565b60405180910390a250565b6000600654905090565b600081116108ed576040517f08c379a00000000000000000000000000000000000000000000000000000000081526004016108e490611b1f565b60405180910390fd5b80600260003373ffffffffffffffffffffffffffffffffffffffff1673ffffffffffffffffffffffffffffffffffffffff16815260200190815260200160002054101561096f576040517f08c379a000000000000000000000000000000000000000000000000000000000815260040161096690611c5a565b60405180910390fd5b600360003373ffffffffffffffffffffffffffffffffffffffff1673ffffffffffffffffffffffffffffffffffffffff16815260200190815260200160002060060160009054906101000a900460ff166109fe576040517f08c379a00000000000000000000000000000000000000000000000000000000081526004016109f590611cc6565b60405180910390fd5b80600260003373ffffffffffffffffffffffffffffffffffffffff1673ffffffffffffffffffffffffffffffffffffffff1681526020019081526020016000206000828254610a4d9190611ce6565b925050819055508060066000828254610a669190611ce6565b92505081905550600060055482610a7d9190611d1a565b90503373ffffffffffffffffffffffffffffffffffffffff166108fc829081150290604051600060405180830381858888f19350505050158015610ac5573d6000803e3d6000fd5b503373ffffffffffffffffffffffffffffffffffffffff167fba2da8fdc940b4a11305e5d354006098b02ae6e90f63db57f9817e2e8bc6cb4a83600554604051610b10929190611d5c565b60405180910390a25050565b600360003373ffffffffffffffffffffffffffffffffffffffff1673ffffffffffffffffffffffffffffffffffffffff16815260200190815260200160002060060160009054906101000a900460ff1615610bac576040517f08c379a0000000000000000000000000000000000000000000000000000000008152600401610ba390611dd1565b60405180910390fd5b6040518060e00160405280848152602001838152602001600081526020016000815260200182151581526020016064815260200160011515815250600360003373ffffffffffffffffffffffffffffffffffffffff1673ffffffffffffffffffffffffffffffffffffffff1681526020019081526020016000206000820151816000019081610c3b9190611f9d565b506020820151816001019081610c519190611f9d565b50604082015181600201556060820151816003015560808201518160040160006101000a81548160ff02191690831515021790555060a0820151816005015560c08201518160060160006101000a81548160ff0219169083151502179055509050508015610d1d576004339080600181540180825580915050600190039060005260206000200160009091909190916101000a81548173ffffffffffffffffffffffffffffffffffffffff021916908373ffffffffffffffffffffffffffffffffffffffff1602179055505b3373ffffffffffffffffffffffffffffffffffffffff167fe23d978387876278c9dac69c90c0838eab392abb740ffcc2f99bb1428a36c2d78483604051610d6592919061206f565b60405180910390a2505050565b60008111610db5576040517f08c379a0000000000000000000000000000000000000000000000000000000008152600401610dac90611b1f565b60405180910390fd5b600360003373ffffffffffffffffffffffffffffffffffffffff1673ffffffffffffffffffffffffffffffffffffffff16815260200190815260200160002060060160009054906101000a900460ff16610e44576040517f08c379a0000000000000000000000000000000000000000000000000000000008152600401610e3b906120eb565b60405180910390fd5b600060055482610e549190611d1a565b905080341015610e99576040517f08c379a0000000000000000000000000000000000000000000000000000000008152600401610e9090612157565b60405180910390fd5b6000805b600480549050811015610f8457836003600060048481548110610ec357610ec2612177565b5b9060005260206000200160009054906101000a900473ffffffffffffffffffffffffffffffffffffffff1673ffffffffffffffffffffffffffffffffffffffff1673ffffffffffffffffffffffffffffffffffffffff1681526020019081526020016000206002015410610f775760048181548110610f4557610f44612177565b5b9060005260206000200160009054906101000a900473ffffffffffffffffffffffffffffffffffffffff169150610f84565b8080600101915050610e9d565b50600073ffffffffffffffffffffffffffffffffffffffff168173ffffffffffffffffffffffffffffffffffffffff1603610ff4576040517f08c379a0000000000000000000000000000000000000000000000000000000008152600401610feb90612218565b60405180910390fd5b82600360008373ffffffffffffffffffffffffffffffffffffffff1673ffffffffffffffffffffffffffffffffffffffff16815260200190815260200160002060020160008282546110469190611ce6565b9250508190555082600360008373ffffffffffffffffffffffffffffffffffffffff1673ffffffffffffffffffffffffffffffffffffffff168152602001908152602001600020600301600082825461109f9190611b6e565b9250508190555082600260003373ffffffffffffffffffffffffffffffffffffffff1673ffffffffffffffffffffffffffffffffffffffff16815260200190815260200160002060008282546110f59190611b6e565b92505081905550826007600082825461110e9190611b6e565b925050819055506000600554846111259190611d1a565b90508173ffffffffffffffffffffffffffffffffffffffff166108fc829081150290604051600060405180830381858888f1935050505015801561116d573d6000803e3d6000fd5b50823411156111c9573373ffffffffffffffffffffffffffffffffffffffff166108fc843461119c9190611ce6565b9081150290604051600060405180830381858888f193505050501580156111c7573d6000803e3d6000fd5b505b8173ffffffffffffffffffffffffffffffffffffffff163373ffffffffffffffffffffffffffffffffffffffff167f9a8c49bb49d5869568dea6d62271138c299a3ee978c21de12b311c18f10c72178660055460405161122a929190611d5c565b60405180910390a350505050565b6060600160008373ffffffffffffffffffffffffffffffffffffffff1673ffffffffffffffffffffffffffffffffffffffff168152602001908152602001600020805461128490611a36565b80601f01602080910402602001604051908101604052809291908181526020018280546112b090611a36565b80156112fd5780601f106112d2576101008083540402835291602001916112fd565b820191906000526020600020905b8154815290600101906020018083116112e057829003601f168201915b50505050509050919050565b80600160003373ffffffffffffffffffffffffffffffffffffffff1673ffffffffffffffffffffffffffffffffffffffff16815260200190815260200160002090816113559190611f9d565b503373ffffffffffffffffffffffffffffffffffffffff167f74d8e560d2e870c35b35dc882df2a5c96e2bf1cdb5ef6dd2f9cb433c8d0488538260405161139c91906118bc565b60405180910390a250565b6060600480548060200260200160405190810160405280929190818152602001828054801561142b57602002820191906000526020600020905b8160009054906101000a900473ffffffffffffffffffffffffffffffffffffffff1673ffffffffffffffffffffffffffffffffffffffff16815260200190600101908083116113e1575b5050505050905090565b6000600260003373ffffffffffffffffffffffffffffffffffffffff1673ffffffffffffffffffffffffffffffffffffffff16815260200190815260200160002054905090565b6000819050919050565b61148f8161147c565b82525050565b60006020820190506114aa6000830184611486565b92915050565b6000604051905090565b600080fd5b600080fd5b600073ffffffffffffffffffffffffffffffffffffffff82169050919050565b60006114ef826114c4565b9050919050565b6114ff816114e4565b811461150a57600080fd5b50565b60008135905061151c816114f6565b92915050565b600060208284031215611538576115376114ba565b5b60006115468482850161150d565b91505092915050565b600081519050919050565b600082825260208201905092915050565b60005b8381101561158957808201518184015260208101905061156e565b60008484015250505050565b6000601f19601f8301169050919050565b60006115b18261154f565b6115bb818561155a565b93506115cb81856020860161156b565b6115d481611595565b840191505092915050565b60008115159050919050565b6115f4816115df565b82525050565b600060e0820190508181036000830152611614818a6115a6565b9050818103602083015261162881896115a6565b90506116376040830188611486565b6116446060830187611486565b61165160808301866115eb565b61165e60a0830185611486565b61166b60c08301846115eb565b98975050505050505050565b6116808161147c565b811461168b57600080fd5b50565b60008135905061169d81611677565b92915050565b6000602082840312156116b9576116b86114ba565b5b60006116c78482850161168e565b91505092915050565b600080fd5b600080fd5b7f4e487b7100000000000000000000000000000000000000000000000000000000600052604160045260246000fd5b61171282611595565b810181811067ffffffffffffffff82111715611731576117306116da565b5b80604052505050565b60006117446114b0565b90506117508282611709565b919050565b600067ffffffffffffffff8211156117705761176f6116da565b5b61177982611595565b9050602081019050919050565b82818337600083830152505050565b60006117a86117a384611755565b61173a565b9050828152602081018484840111156117c4576117c36116d5565b5b6117cf848285611786565b509392505050565b600082601f8301126117ec576117eb6116d0565b5b81356117fc848260208601611795565b91505092915050565b61180e816115df565b811461181957600080fd5b50565b60008135905061182b81611805565b92915050565b60008060006060848603121561184a576118496114ba565b5b600084013567ffffffffffffffff811115611868576118676114bf565b5b611874868287016117d7565b935050602084013567ffffffffffffffff811115611895576118946114bf565b5b6118a1868287016117d7565b92505060406118b28682870161181c565b9150509250925092565b600060208201905081810360008301526118d681846115a6565b905092915050565b6000602082840312156118f4576118f36114ba565b5b600082013567ffffffffffffffff811115611912576119116114bf565b5b61191e848285016117d7565b91505092915050565b600081519050919050565b600082825260208201905092915050565b6000819050602082019050919050565b61195c816114e4565b82525050565b600061196e8383611953565b60208301905092915050565b6000602082019050919050565b600061199282611927565b61199c8185611932565b93506119a783611943565b8060005b838110156119d85781516119bf8882611962565b97506119ca8361197a565b9250506001810190506119ab565b5085935050505092915050565b600060208201905081810360008301526119ff8184611987565b905092915050565b7f4e487b7100000000000000000000000000000000000000000000000000000000600052602260045260246000fd5b60006002820490506001821680611a4e57607f821691505b602082108103611a6157611a60611a07565b5b50919050565b7f4f6e6c792070726f7669646572732063616e2061646420637265646974730000600082015250565b6000611a9d601e8361155a565b9150611aa882611a67565b602082019050919050565b60006020820190508181036000830152611acc81611a90565b9050919050565b7f416d6f756e74206d7573742062652067726561746572207468616e2030000000600082015250565b6000611b09601d8361155a565b9150611b1482611ad3565b602082019050919050565b60006020820190508181036000830152611b3881611afc565b9050919050565b7f4e487b7100000000000000000000000000000000000000000000000000000000600052601160045260246000fd5b6000611b798261147c565b9150611b848361147c565b9250828201905080821115611b9c57611b9b611b3f565b5b92915050565b7f5072696365206d7573742062652067726561746572207468616e203000000000600082015250565b6000611bd8601c8361155a565b9150611be382611ba2565b602082019050919050565b60006020820190508181036000830152611c0781611bcb565b9050919050565b7f496e73756666696369656e7420636172626f6e20637265646974730000000000600082015250565b6000611c44601b8361155a565b9150611c4f82611c0e565b602082019050919050565b60006020820190508181036000830152611c7381611c37565b9050919050565b7f53656c6c6572206d757374206861766520612070726f66696c65000000000000600082015250565b6000611cb0601a8361155a565b9150611cbb82611c7a565b602082019050919050565b60006020820190508181036000830152611cdf81611ca3565b9050919050565b6000611cf18261147c565b9150611cfc8361147c565b9250828203905081811115611d1457611d13611b3f565b5b92915050565b6000611d258261147c565b9150611d308361147c565b9250828202611d3e8161147c565b91508282048414831517611d5557611d54611b3f565b5b5092915050565b6000604082019050611d716000830185611486565b611d7e6020830184611486565b9392505050565b7f50726f66696c6520616c72656164792065786973747300000000000000000000600082015250565b6000611dbb60168361155a565b9150611dc682611d85565b602082019050919050565b60006020820190508181036000830152611dea81611dae565b9050919050565b60008190508160005260206000209050919050565b60006020601f8301049050919050565b600082821b905092915050565b600060088302611e537fffffffffffffffffffffffffffffffffffffffffffffffffffffffffffffffff82611e16565b611e5d8683611e16565b95508019841693508086168417925050509392505050565b6000819050919050565b6000611e9a611e95611e908461147c565b611e75565b61147c565b9050919050565b6000819050919050565b611eb483611e7f565b611ec8611ec082611ea1565b848454611e23565b825550505050565b600090565b611edd611ed0565b611ee8818484611eab565b505050565b5b81811015611f0c57611f01600082611ed5565b600181019050611eee565b5050565b601f821115611f5157611f2281611df1565b611f2b84611e06565b81016020851015611f3a578190505b611f4e611f4685611e06565b830182611eed565b50505b505050565b600082821c905092915050565b6000611f7460001984600802611f56565b1980831691505092915050565b6000611f8d8383611f63565b9150826002028217905092915050565b611fa68261154f565b67ffffffffffffffff811115611fbf57611fbe6116da565b5b611fc98254611a36565b611fd4828285611f10565b600060209050601f8311600181146120075760008415611ff5578287015190505b611fff8582611f81565b865550612067565b601f19841661201586611df1565b60005b8281101561203d57848901518255600182019150602085019450602081019050612018565b8683101561205a5784890151612056601f891682611f63565b8355505b6001600288020188555050505b505050505050565b6000604082019050818103600083015261208981856115a6565b905061209860208301846115eb565b9392505050565b7f4275796572206d757374206861766520612070726f66696c6500000000000000600082015250565b60006120d560198361155a565b91506120e08261209f565b602082019050919050565b60006020820190508181036000830152612104816120c8565b9050919050565b7f496e73756666696369656e74207061796d656e74000000000000000000000000600082015250565b600061214160148361155a565b915061214c8261210b565b602082019050919050565b6000602082019050818103600083015261217081612134565b9050919050565b7f4e487b7100000000000000000000000000000000000000000000000000000000600052603260045260246000fd5b7f4e6f2070726f766964657220776974682073756666696369656e74206372656460008201527f69747320617661696c61626c6500000000000000000000000000000000000000602082015250565b6000612202602d8361155a565b915061220d826121a6565b604082019050919050565b60006020820190508181036000830152612231816121f5565b905091905056fea26469706673582212203d7f892d8b19bee91520bd720ee7b9e473b94968920a8f99c868b2bd8e868f4264736f6c634300081c0033",
  "linkReferences": {},
  "deployedLinkReferences": {}
}