{
  "_format": "hh-sol-artifact-1",
  "contractName": "BlockerChain",
  "sourceName": "contracts/BlockerChain.sol",
  "abi": [
    {
      "inputs": [],
      "stateMutability": "nonpayable",
      "type": "constructor"
    },
    {
      "anonymous": false,
      "inputs": [
        {
          "indexed": false,
          "internalType": "uint256",
          "name": "newPrice",
          "type": "uint256"
        }
      ],
      "name": "CarbonCreditPriceUpdated",
      "type": "event"
    },
    {
      "anonymous": false,
      "inputs": [
        {
          "indexed": true,
          "internalType": "address",
          "name": "buyer",
          "type": "address"
        },
        {
          "indexed": false,
          "internalType": "uint256",
          "name": "amount",
          "type": "uint256"
        },
        {
          "indexed": false,
          "internalType": "uint256",
          "name": "price",
          "type": "uint256"
        }
      ],
      "name": "CarbonCreditsBought",
      "type": "event"
    },
    {
      "anonymous": false,
      "inputs": [
        {
          "indexed": true,
          "internalType": "address",
          "name": "seller",
          "type": "address"
        },
        {
          "indexed": false,
          "internalType": "uint256",
          "name": "amount",
          "type": "uint256"
        },
        {
          "indexed": false,
          "internalType": "uint256",
          "name": "price",
          "type": "uint256"
        }
      ],
      "name": "CarbonCreditsSold",
      "type": "event"
    },
    {
      "anonymous": false,
      "inputs": [
        {
          "indexed": true,
          "internalType": "address",
          "name": "user",
          "type": "address"
        },
        {
          "indexed": false,
          "internalType": "string",
          "name": "username",
          "type": "string"
        }
      ],
      "name": "UsernameSet",
      "type": "event"
    },
    {
      "anonymous": false,
      "inputs": [
        {
          "indexed": true,
          "internalType": "address",
          "name": "user",
          "type": "address"
        },
        {
          "indexed": false,
          "internalType": "uint256",
          "name": "value",
          "type": "uint256"
        }
      ],
      "name": "ValueStored",
      "type": "event"
    },
    {
      "inputs": [
        {
          "internalType": "uint256",
          "name": "amount",
          "type": "uint256"
        }
      ],
      "name": "buyCarbonCredits",
      "outputs": [],
      "stateMutability": "payable",
      "type": "function"
    },
    {
      "inputs": [],
      "name": "getCarbonCreditPrice",
      "outputs": [
        {
          "internalType": "uint256",
          "name": "",
          "type": "uint256"
        }
      ],
      "stateMutability": "view",
      "type": "function"
    },
    {
      "inputs": [],
      "name": "getCarbonCredits",
      "outputs": [
        {
          "internalType": "uint256",
          "name": "",
          "type": "uint256"
        }
      ],
      "stateMutability": "view",
      "type": "function"
    },
    {
      "inputs": [],
      "name": "getTotalCarbonCredits",
      "outputs": [
        {
          "internalType": "uint256",
          "name": "",
          "type": "uint256"
        }
      ],
      "stateMutability": "view",
      "type": "function"
    },
    {
      "inputs": [],
      "name": "getTotalVolume",
      "outputs": [
        {
          "internalType": "uint256",
          "name": "",
          "type": "uint256"
        }
      ],
      "stateMutability": "view",
      "type": "function"
    },
    {
      "inputs": [
        {
          "internalType": "address",
          "name": "user",
          "type": "address"
        }
      ],
      "name": "getUsername",
      "outputs": [
        {
          "internalType": "string",
          "name": "",
          "type": "string"
        }
      ],
      "stateMutability": "view",
      "type": "function"
    },
    {
      "inputs": [],
      "name": "retrieve",
      "outputs": [
        {
          "internalType": "uint256",
          "name": "",
          "type": "uint256"
        }
      ],
      "stateMutability": "view",
      "type": "function"
    },
    {
      "inputs": [
        {
          "internalType": "uint256",
          "name": "amount",
          "type": "uint256"
        }
      ],
      "name": "sellCarbonCredits",
      "outputs": [],
      "stateMutability": "nonpayable",
      "type": "function"
    },
    {
      "inputs": [
        {
          "internalType": "uint256",
          "name": "newPrice",
          "type": "uint256"
        }
      ],
      "name": "setCarbonCreditPrice",
      "outputs": [],
      "stateMutability": "nonpayable",
      "type": "function"
    },
    {
      "inputs": [
        {
          "internalType": "string",
          "name": "name",
          "type": "string"
        }
      ],
      "name": "setUsername",
      "outputs": [],
      "stateMutability": "nonpayable",
      "type": "function"
    },
    {
      "inputs": [
        {
          "internalType": "uint256",
          "name": "value",
          "type": "uint256"
        }
      ],
      "name": "store",
      "outputs": [],
      "stateMutability": "nonpayable",
      "type": "function"
    },
    {
      "stateMutability": "payable",
      "type": "receive"
    }
  ],
  "bytecode": "0x6080604052348015600f57600080fd5b50662386f26fc100006003819055506112888061002d6000396000f3fe6080604052600436106100a05760003560e01c8063811b6baf11610064578063811b6baf1461017f5780638b29ad40146101aa578063c5666a05146101d3578063ce43c032146101ef578063ed59313a1461022c578063f27b7e2a14610255576100a7565b80630b9d98e9146100ac57806316dad69b146100d75780632e64cec1146101025780635a8c76331461012d5780636057361d14610156576100a7565b366100a757005b600080fd5b3480156100b857600080fd5b506100c1610280565b6040516100ce919061097f565b60405180910390f35b3480156100e357600080fd5b506100ec61028a565b6040516100f9919061097f565b60405180910390f35b34801561010e57600080fd5b50610117610294565b604051610124919061097f565b60405180910390f35b34801561013957600080fd5b50610154600480360381019061014f91906109da565b6102da565b005b34801561016257600080fd5b5061017d600480360381019061017891906109da565b61035e565b005b34801561018b57600080fd5b506101946103f2565b6040516101a1919061097f565b60405180910390f35b3480156101b657600080fd5b506101d160048036038101906101cc91906109da565b6103fc565b005b6101ed60048036038101906101e891906109da565b6105df565b005b3480156101fb57600080fd5b5061021660048036038101906102119190610a65565b6107b0565b6040516102239190610b22565b60405180910390f35b34801561023857600080fd5b50610253600480360381019061024e9190610c79565b610881565b005b34801561026157600080fd5b5061026a61091f565b604051610277919061097f565b60405180910390f35b6000600554905090565b6000600354905090565b60008060003373ffffffffffffffffffffffffffffffffffffffff1673ffffffffffffffffffffffffffffffffffffffff16815260200190815260200160002054905090565b6000811161031d576040517f08c379a000000000000000000000000000000000000000000000000000000000815260040161031490610d0e565b60405180910390fd5b806003819055507fe9fe7eb265f0ba3d542f9387ac2c13a92e6a74fedaeafe9423862b406588911f81604051610353919061097f565b60405180910390a150565b806000803373ffffffffffffffffffffffffffffffffffffffff1673ffffffffffffffffffffffffffffffffffffffff168152602001908152602001600020819055503373ffffffffffffffffffffffffffffffffffffffff167f0e206f5529831e9b05b13e53145833f40b1e2fc5fc831b7c6a24301d4ea43c39826040516103e7919061097f565b60405180910390a250565b6000600454905090565b6000811161043f576040517f08c379a000000000000000000000000000000000000000000000000000000000815260040161043690610d7a565b60405180910390fd5b80600260003373ffffffffffffffffffffffffffffffffffffffff1673ffffffffffffffffffffffffffffffffffffffff1681526020019081526020016000205410156104c1576040517f08c379a00000000000000000000000000000000000000000000000000000000081526004016104b890610de6565b60405180910390fd5b80600260003373ffffffffffffffffffffffffffffffffffffffff1673ffffffffffffffffffffffffffffffffffffffff16815260200190815260200160002060008282546105109190610e35565b9250508190555080600460008282546105299190610e35565b925050819055506000600354826105409190610e69565b90503373ffffffffffffffffffffffffffffffffffffffff166108fc829081150290604051600060405180830381858888f19350505050158015610588573d6000803e3d6000fd5b503373ffffffffffffffffffffffffffffffffffffffff167fba2da8fdc940b4a11305e5d354006098b02ae6e90f63db57f9817e2e8bc6cb4a836003546040516105d3929190610eab565b60405180910390a25050565b60008111610622576040517f08c379a000000000000000000000000000000000000000000000000000000000815260040161061990610d7a565b60405180910390fd5b6000600354826106329190610e69565b905080341015610677576040517f08c379a000000000000000000000000000000000000000000000000000000000815260040161066e90610f20565b60405180910390fd5b81600260003373ffffffffffffffffffffffffffffffffffffffff1673ffffffffffffffffffffffffffffffffffffffff16815260200190815260200160002060008282546106c69190610f40565b9250508190555081600460008282546106df9190610f40565b9250508190555081600560008282546106f89190610f40565b925050819055508034111561075a573373ffffffffffffffffffffffffffffffffffffffff166108fc823461072d9190610e35565b9081150290604051600060405180830381858888f19350505050158015610758573d6000803e3d6000fd5b505b3373ffffffffffffffffffffffffffffffffffffffff167ff56e562e410d2610373d3a7b0aa6584942672189cbabe76c348ee3e194682803836003546040516107a4929190610eab565b60405180910390a25050565b6060600160008373ffffffffffffffffffffffffffffffffffffffff1673ffffffffffffffffffffffffffffffffffffffff16815260200190815260200160002080546107fc90610fa3565b80601f016020809104026020016040519081016040528092919081815260200182805461082890610fa3565b80156108755780601f1061084a57610100808354040283529160200191610875565b820191906000526020600020905b81548152906001019060200180831161085857829003601f168201915b50505050509050919050565b80600160003373ffffffffffffffffffffffffffffffffffffffff1673ffffffffffffffffffffffffffffffffffffffff16815260200190815260200160002090816108cd9190611180565b503373ffffffffffffffffffffffffffffffffffffffff167f74d8e560d2e870c35b35dc882df2a5c96e2bf1cdb5ef6dd2f9cb433c8d048853826040516109149190610b22565b60405180910390a250565b6000600260003373ffffffffffffffffffffffffffffffffffffffff1673ffffffffffffffffffffffffffffffffffffffff16815260200190815260200160002054905090565b6000819050919050565b61097981610966565b82525050565b60006020820190506109946000830184610970565b92915050565b6000604051905090565b600080fd5b600080fd5b6109b781610966565b81146109c257600080fd5b50565b6000813590506109d4816109ae565b92915050565b6000602082840312156109f0576109ef6109a4565b5b60006109fe848285016109c5565b91505092915050565b600073ffffffffffffffffffffffffffffffffffffffff82169050919050565b6000610a3282610a07565b9050919050565b610a4281610a27565b8114610a4d57600080fd5b50565b600081359050610a5f81610a39565b92915050565b600060208284031215610a7b57610a7a6109a4565b5b6000610a8984828501610a50565b91505092915050565b600081519050919050565b600082825260208201905092915050565b60005b83811015610acc578082015181840152602081019050610ab1565b60008484015250505050565b6000601f19601f8301169050919050565b6000610af482610a92565b610afe8185610a9d565b9350610b0e818560208601610aae565b610b1781610ad8565b840191505092915050565b60006020820190508181036000830152610b3c8184610ae9565b905092915050565b600080fd5b600080fd5b7f4e487b7100000000000000000000000000000000000000000000000000000000600052604160045260246000fd5b610b8682610ad8565b810181811067ffffffffffffffff82111715610ba557610ba4610b4e565b5b80604052505050565b6000610bb861099a565b9050610bc48282610b7d565b919050565b600067ffffffffffffffff821115610be457610be3610b4e565b5b610bed82610ad8565b9050602081019050919050565b82818337600083830152505050565b6000610c1c610c1784610bc9565b610bae565b905082815260208101848484011115610c3857610c37610b49565b5b610c43848285610bfa565b509392505050565b600082601f830112610c6057610c5f610b44565b5b8135610c70848260208601610c09565b91505092915050565b600060208284031215610c8f57610c8e6109a4565b5b600082013567ffffffffffffffff811115610cad57610cac6109a9565b5b610cb984828501610c4b565b91505092915050565b7f5072696365206d7573742062652067726561746572207468616e203000000000600082015250565b6000610cf8601c83610a9d565b9150610d0382610cc2565b602082019050919050565b60006020820190508181036000830152610d2781610ceb565b9050919050565b7f416d6f756e74206d7573742062652067726561746572207468616e2030000000600082015250565b6000610d64601d83610a9d565b9150610d6f82610d2e565b602082019050919050565b60006020820190508181036000830152610d9381610d57565b9050919050565b7f496e73756666696369656e7420636172626f6e20637265646974730000000000600082015250565b6000610dd0601b83610a9d565b9150610ddb82610d9a565b602082019050919050565b60006020820190508181036000830152610dff81610dc3565b9050919050565b7f4e487b7100000000000000000000000000000000000000000000000000000000600052601160045260246000fd5b6000610e4082610966565b9150610e4b83610966565b9250828203905081811115610e6357610e62610e06565b5b92915050565b6000610e7482610966565b9150610e7f83610966565b9250828202610e8d81610966565b91508282048414831517610ea457610ea3610e06565b5b5092915050565b6000604082019050610ec06000830185610970565b610ecd6020830184610970565b9392505050565b7f496e73756666696369656e74207061796d656e74000000000000000000000000600082015250565b6000610f0a601483610a9d565b9150610f1582610ed4565b602082019050919050565b60006020820190508181036000830152610f3981610efd565b9050919050565b6000610f4b82610966565b9150610f5683610966565b9250828201905080821115610f6e57610f6d610e06565b5b92915050565b7f4e487b7100000000000000000000000000000000000000000000000000000000600052602260045260246000fd5b60006002820490506001821680610fbb57607f821691505b602082108103610fce57610fcd610f74565b5b50919050565b60008190508160005260206000209050919050565b60006020601f8301049050919050565b600082821b905092915050565b6000600883026110367fffffffffffffffffffffffffffffffffffffffffffffffffffffffffffffffff82610ff9565b6110408683610ff9565b95508019841693508086168417925050509392505050565b6000819050919050565b600061107d61107861107384610966565b611058565b610966565b9050919050565b6000819050919050565b61109783611062565b6110ab6110a382611084565b848454611006565b825550505050565b600090565b6110c06110b3565b6110cb81848461108e565b505050565b5b818110156110ef576110e46000826110b8565b6001810190506110d1565b5050565b601f8211156111345761110581610fd4565b61110e84610fe9565b8101602085101561111d578190505b61113161112985610fe9565b8301826110d0565b50505b505050565b600082821c905092915050565b600061115760001984600802611139565b1980831691505092915050565b60006111708383611146565b9150826002028217905092915050565b61118982610a92565b67ffffffffffffffff8111156111a2576111a1610b4e565b5b6111ac8254610fa3565b6111b78282856110f3565b600060209050601f8311600181146111ea57600084156111d8578287015190505b6111e28582611164565b86555061124a565b601f1984166111f886610fd4565b60005b82811015611220578489015182556001820191506020850194506020810190506111fb565b8683101561123d5784890151611239601f891682611146565b8355505b6001600288020188555050505b50505050505056fea2646970667358221220899c13688b3cf5ae04c53cedac09248e9f8fbbd8803db66eb1b8f8d670ca825964736f6c634300081c0033",
  "linkReferences": {},
  "deployedLinkReferences": {}
}