{
  "_format": "hh-sol-artifact-1",
  "contractName": "BlockerChain",
  "sourceName": "contracts/BlockerChain.sol",
  "abi": [
    {
      "anonymous": false,
      "inputs": [
        {
          "indexed": true,
          "internalType": "address",
          "name": "user",
          "type": "address"
        },
        {
          "indexed": false,
          "internalType": "string",
          "name": "username",
          "type": "string"
        }
      ],
      "name": "UsernameSet",
      "type": "event"
    },
    {
      "anonymous": false,
      "inputs": [
        {
          "indexed": true,
          "internalType": "address",
          "name": "user",
          "type": "address"
        },
        {
          "indexed": false,
          "internalType": "uint256",
          "name": "value",
          "type": "uint256"
        }
      ],
      "name": "ValueStored",
      "type": "event"
    },
    {
      "inputs": [
        {
          "internalType": "address",
          "name": "user",
          "type": "address"
        }
      ],
      "name": "getUsername",
      "outputs": [
        {
          "internalType": "string",
          "name": "",
          "type": "string"
        }
      ],
      "stateMutability": "view",
      "type": "function"
    },
    {
      "inputs": [],
      "name": "retrieve",
      "outputs": [
        {
          "internalType": "uint256",
          "name": "",
          "type": "uint256"
        }
      ],
      "stateMutability": "view",
      "type": "function"
    },
    {
      "inputs": [
        {
          "internalType": "string",
          "name": "name",
          "type": "string"
        }
      ],
      "name": "setUsername",
      "outputs": [],
      "stateMutability": "nonpayable",
      "type": "function"
    },
    {
      "inputs": [
        {
          "internalType": "uint256",
          "name": "value",
          "type": "uint256"
        }
      ],
      "name": "store",
      "outputs": [],
      "stateMutability": "nonpayable",
      "type": "function"
    },
    {
      "stateMutability": "payable",
      "type": "receive"
    }
  ],
  "bytecode": "0x6080604052348015600f57600080fd5b506109c28061001f6000396000f3fe6080604052600436106100435760003560e01c80632e64cec11461004f5780636057361d1461007a578063ce43c032146100a3578063ed59313a146100e05761004a565b3661004a57005b600080fd5b34801561005b57600080fd5b50610064610109565b604051610071919061036b565b60405180910390f35b34801561008657600080fd5b506100a1600480360381019061009c91906103c6565b61014f565b005b3480156100af57600080fd5b506100ca60048036038101906100c59190610451565b6101e3565b6040516100d7919061050e565b60405180910390f35b3480156100ec57600080fd5b5061010760048036038101906101029190610665565b6102b4565b005b60008060003373ffffffffffffffffffffffffffffffffffffffff1673ffffffffffffffffffffffffffffffffffffffff16815260200190815260200160002054905090565b806000803373ffffffffffffffffffffffffffffffffffffffff1673ffffffffffffffffffffffffffffffffffffffff168152602001908152602001600020819055503373ffffffffffffffffffffffffffffffffffffffff167f0e206f5529831e9b05b13e53145833f40b1e2fc5fc831b7c6a24301d4ea43c39826040516101d8919061036b565b60405180910390a250565b6060600160008373ffffffffffffffffffffffffffffffffffffffff1673ffffffffffffffffffffffffffffffffffffffff168152602001908152602001600020805461022f906106dd565b80601f016020809104026020016040519081016040528092919081815260200182805461025b906106dd565b80156102a85780601f1061027d576101008083540402835291602001916102a8565b820191906000526020600020905b81548152906001019060200180831161028b57829003601f168201915b50505050509050919050565b80600160003373ffffffffffffffffffffffffffffffffffffffff1673ffffffffffffffffffffffffffffffffffffffff168152602001908152602001600020908161030091906108ba565b503373ffffffffffffffffffffffffffffffffffffffff167f74d8e560d2e870c35b35dc882df2a5c96e2bf1cdb5ef6dd2f9cb433c8d04885382604051610347919061050e565b60405180910390a250565b6000819050919050565b61036581610352565b82525050565b6000602082019050610380600083018461035c565b92915050565b6000604051905090565b600080fd5b600080fd5b6103a381610352565b81146103ae57600080fd5b50565b6000813590506103c08161039a565b92915050565b6000602082840312156103dc576103db610390565b5b60006103ea848285016103b1565b91505092915050565b600073ffffffffffffffffffffffffffffffffffffffff82169050919050565b600061041e826103f3565b9050919050565b61042e81610413565b811461043957600080fd5b50565b60008135905061044b81610425565b92915050565b60006020828403121561046757610466610390565b5b60006104758482850161043c565b91505092915050565b600081519050919050565b600082825260208201905092915050565b60005b838110156104b857808201518184015260208101905061049d565b60008484015250505050565b6000601f19601f8301169050919050565b60006104e08261047e565b6104ea8185610489565b93506104fa81856020860161049a565b610503816104c4565b840191505092915050565b6000602082019050818103600083015261052881846104d5565b905092915050565b600080fd5b600080fd5b7f4e487b7100000000000000000000000000000000000000000000000000000000600052604160045260246000fd5b610572826104c4565b810181811067ffffffffffffffff821117156105915761059061053a565b5b80604052505050565b60006105a4610386565b90506105b08282610569565b919050565b600067ffffffffffffffff8211156105d0576105cf61053a565b5b6105d9826104c4565b9050602081019050919050565b82818337600083830152505050565b6000610608610603846105b5565b61059a565b90508281526020810184848401111561062457610623610535565b5b61062f8482856105e6565b509392505050565b600082601f83011261064c5761064b610530565b5b813561065c8482602086016105f5565b91505092915050565b60006020828403121561067b5761067a610390565b5b600082013567ffffffffffffffff81111561069957610698610395565b5b6106a584828501610637565b91505092915050565b7f4e487b7100000000000000000000000000000000000000000000000000000000600052602260045260246000fd5b600060028204905060018216806106f557607f821691505b602082108103610708576107076106ae565b5b50919050565b60008190508160005260206000209050919050565b60006020601f8301049050919050565b600082821b905092915050565b6000600883026107707fffffffffffffffffffffffffffffffffffffffffffffffffffffffffffffffff82610733565b61077a8683610733565b95508019841693508086168417925050509392505050565b6000819050919050565b60006107b76107b26107ad84610352565b610792565b610352565b9050919050565b6000819050919050565b6107d18361079c565b6107e56107dd826107be565b848454610740565b825550505050565b600090565b6107fa6107ed565b6108058184846107c8565b505050565b5b818110156108295761081e6000826107f2565b60018101905061080b565b5050565b601f82111561086e5761083f8161070e565b61084884610723565b81016020851015610857578190505b61086b61086385610723565b83018261080a565b50505b505050565b600082821c905092915050565b600061089160001984600802610873565b1980831691505092915050565b60006108aa8383610880565b9150826002028217905092915050565b6108c38261047e565b67ffffffffffffffff8111156108dc576108db61053a565b5b6108e682546106dd565b6108f182828561082d565b600060209050601f8311600181146109245760008415610912578287015190505b61091c858261089e565b865550610984565b601f1984166109328661070e565b60005b8281101561095a57848901518255600182019150602085019450602081019050610935565b868310156109775784890151610973601f891682610880565b8355505b6001600288020188555050505b50505050505056fea26469706673582212205d1df7e01ef19b40381a03b645d740ae576f2f953cedef9036e875c17ce5af7d64736f6c634300081c0033",
  "linkReferences": {},
  "deployedLinkReferences": {}
}